:020000040800F2
:1000000000000220A13100086118000863180008F0
:10001000651800086718000869180008000000004B
:10002000000000000000000000000000511A00085D
:100030006B18000800000000F11A00086D18000895
:10004000F1310008F1310008F1310008F131000808
:10005000F1310008F131000885180008F13100087D
:10006000F1310008F1310008F1310008F1310008E8
:10007000F1310008F1310008F1310008F1310008D8
:10008000F1310008F1310008F1310008F1310008C8
:10009000F1310008F1310008F1310008F1310008B8
:1000A000F1310008F1310008F1310008F1310008A8
:1000B000F1310008F1310008F1310008F131000898
:1000C000F1310008F1310008F1310008F131000888
:1000D000F1310008F1310008F1310008F131000878
:1000E000F1310008F1310008F1310008F131000868
:1000F000F1310008F1310008F1310008F131000858
:10010000F1310008F1310008F1310008F131000847
:10011000F1310008F1310008C1180008F131000880
:10012000F1310008F1310008F1310008F131000827
:10013000F1310008F1310008F1310008F131000817
:10014000F1310008F1310008F1310008F131000807
:10015000F1310008F1310008F1310008F1310008F7
:10016000F1310008F1310008F1310008F1310008E7
:10017000F1310008F1310008F13100080000000001
:08018000F1310008F131000823
:1001900010B5054C237833B9044B13B10448AFF3C1
:1001A00000800123237010BD4804002000000000DF
:1001B000F431000808B5034B1BB103490348AFF302
:1001C000008008BD000000004C040020F43100084D
:1001D00053B94AB9002908BF00281CBF4FF0FF31AE
:1001E0004FF0FF3000F074B9ADF1080C6DE904CEAA
:1001F00000F006F8DDF804E0DDE9022304B0704702
:100200002DE9F047089D04468E46002B4DD18A42C9
:10021000944669D9B2FA82F252B101FA02F3C2F1FC
:10022000200120FA01F10CFA02FC41EA030E94408D
:100230004FEA1C48210CBEFBF8F61FFA8CF708FBAE
:1002400016E341EA034306FB07F199420AD91CEB86
:10025000030306F1FF3080F01F81994240F21C81B8
:10026000023E63445B1AA4B2B3FBF8F008FB103300
:1002700044EA034400FB07F7A7420AD91CEB040435
:1002800000F1FF3380F00A81A74240F20781644405
:10029000023840EA0640E41B00261DB1D44000238A
:1002A000C5E900433146BDE8F0878B4209D9002DEE
:1002B00000F0EF800026C5E9000130463146BDE878
:1002C000F087B3FA83F6002E4AD18B4202D38242E2
:1002D00000F2F980841A61EB030301209E46002D91
:1002E000E0D0C5E9004EDDE702B9FFDEB2FA82F2E6
:1002F000002A40F09280A1EB0C014FEA1C471FFA44
:100300008CFE0126200CB1FBF7F307FB131140EA2A
:1003100001410EFB03F0884208D91CEB010103F1F7
:10032000FF3802D2884200F2CB804346091AA4B2B9
:10033000B1FBF7F007FB101144EA01440EFB00FE8D
:10034000A64508D91CEB040400F1FF3102D2A645F2
:1003500000F2BB800846A4EB0E0440EA03409CE791
:10036000C6F12007B34022FA07FC4CEA030C20FA3E
:1003700007F401FA06F31C43F9404FEA1C4900FA5E
:1003800006F3B1FBF9F8200C1FFA8CFE09FB1811DB
:1003900040EA014108FB0EF0884202FA06F20BD94E
:1003A0001CEB010108F1FF3A80F08880884240F29E
:1003B0008580A8F102086144091AA4B2B1FBF9F0E2
:1003C00009FB101144EA014100FB0EFE8E4508D9DD
:1003D0001CEB010100F1FF346CD28E456AD9023862
:1003E000614440EA0840A0FB0294A1EB0E01A14247
:1003F000C846A64656D353D05DB1B3EB080261EBB5
:100400000E0101FA07F722FA06F3F1401F43C5E98E
:10041000007100263146BDE8F087C2F12003D840C4
:100420000CFA02FC21FA03F3914001434FEA1C4706
:100430001FFA8CFEB3FBF7F007FB10360B0C43EAF8
:10044000064300FB0EF69E4204FA02F408D91CEBA8
:10045000030300F1FF382FD29E422DD902386344A6
:100460009B1B89B2B3FBF7F607FB163341EA034146
:1004700006FB0EF38B4208D91CEB010106F1FF3895
:1004800016D28B4214D9023E6144C91A46EA00468C
:1004900038E72E46284605E70646E3E61846F8E61E
:1004A0004B45A9D2B9EB020864EB0C0E0138A3E767
:1004B0004646EAE7204694E74046D1E7D0467BE748
:1004C000023B614432E7304609E76444023842E7C0
:1004D000704700BF844641EA000313F003036DD167
:1004E000403A41D351F8043B40F8043B51F8043BF7
:1004F00040F8043B51F8043B40F8043B51F8043BFE
:1005000040F8043B51F8043B40F8043B51F8043BED
:1005100040F8043B51F8043B40F8043B51F8043BDD
:1005200040F8043B51F8043B40F8043B51F8043BCD
:1005300040F8043B51F8043B40F8043B51F8043BBD
:1005400040F8043B51F8043B40F8043B51F8043BAD
:1005500040F8043B51F8043B40F8043B51F8043B9D
:1005600040F8043B403ABDD2303211D351F8043B3D
:1005700040F8043B51F8043B40F8043B51F8043B7D
:1005800040F8043B51F8043B40F8043B103AEDD2EC
:100590000C3205D351F8043B40F8043B043AF9D23D
:1005A000043208D0D2071CBF11F8013B00F8013B10
:1005B00001D30B8803806046704700BF082A13D31D
:1005C0008B078DD010F003038AD0C3F10403D21A35
:1005D000DB071CBF11F8013B00F8013B80D331F869
:1005E000023B20F8023B7BE7043AD9D3013A11F8E9
:1005F000013B00F8013BF9D20B7803704B78437054
:100600008B7883706046704770B50D4E0D4D761B2C
:10061000B61006D0002455F8043B01349847A64292
:10062000F9D1094E094D761B02F0E4FDB61006D053
:10063000002455F8043B01349847A642F9D170BD17
:1006400074320008743200087C32000874320008EA
:10065000830730B548D0541E002A3FD0CAB20346A3
:1006600001E0013C3AD303F8012B9D07F9D1032C9B
:100670002DD9CDB245EA05250F2C45EA054536D9D9
:10068000A4F1100222F00F0C03F1200EE6444FEA11
:10069000121C03F1100242E9045542E902551032DE
:1006A0007245F8D10CF1010214F00C0F03EB0212A9
:1006B00004F00F0C13D0ACF1040323F00303043354
:1006C000134442F8045B9342FBD10CF003042CB1B9
:1006D000CAB21C4403F8012B9C42FBD130BD6446D6
:1006E0001346002CF4D1F9E703461446BFE71A4637
:1006F000A446E0E7024B13B1024800F005B870478A
:100700000000000015070008002301461A4618469D
:1007100000F01AB838B5084B084D5B1B9C1007D089
:10072000043B1D44013C55F804399847002CF9D18D
:10073000BDE8384002F064BD803200087C32000819
:10074000704700BF704700BF2DE9F047DFF880A079
:100750000646DAF8000098460F469146FFF7F0FF8C
:100760001A4B1B68D3F8484124B365681F2D26DC5B
:100770005EB96B1C0235DAF80000636044F825703E
:10078000FFF7E0FF0020BDE8F08704EB85010123BF
:10079000C1F88890D4F88821AB401A43022EC4F8DF
:1007A0008821C1F80881E4D1D4F88C211343C4F81E
:1007B0008C31DEE703F5A674C3F84841D5E7DAF8D3
:1007C0000000FFF7BFFF4FF0FF30DCE728320008E2
:1007D0002804002090F83D30DBB2012B37D10223F2
:1007E00080F83D300268D36843F00103D3600368AA
:1007F000194A934220D0B3F1804F1DD0A2F57C421C
:10080000934219D002F58062934215D002F58062BE
:10081000934211D002F5784293420DD002F5705206
:10082000934209D0A2F59432934205D01A6842F05F
:1008300001021A60002070479A6802F00702062A37
:1008400007D01A6842F001021A60002070470120A8
:1008500070470020704700BF00000140704770479C
:1008600070477047704710B5044603681A6912F064
:10087000020F11D0DA6812F0020F0DD06FF00202F1
:100880001A610123037703689B6913F0030F70D08B
:10089000FFF7E6FF0023237723681A6912F0040F9D
:1008A00012D0DA6812F0040F0ED06FF004021A6151
:1008B0000223237723689B6913F4407F5FD020468F
:1008C000FFF7CEFF0023237723681A6912F0080F81
:1008D00012D0DA6812F0080F0ED06FF008021A6119
:1008E000042323772368DB6913F0030F4ED02046DF
:1008F000FFF7B6FF0023237723681A6912F0100F61
:1009000012D0DA6812F0100F0ED06FF010021A61D8
:10091000082323772368DB6913F4407F3DD020460A
:10092000FFF79EFF0023237723681A6912F0010F57
:1009300003D0DA6812F0010F36D123681A6912F079
:10094000800F03D0DA6812F0800F34D123681A695F
:1009500012F0400F03D0DA6812F0400F32D1236852
:100960001A6912F0200F03D0DA6812F0200F30D18C
:1009700010BDFFF774FF2046FFF773FF8AE720469C
:10098000FFF76DFF2046FFF76CFF9BE72046FFF760
:1009900066FF2046FFF765FFACE72046FFF75FFFE5
:1009A0002046FFF75EFFBDE76FF001021A612046A7
:1009B000FFF754FFC1E76FF080021A61204600F094
:1009C000E6F8C3E76FF040021A612046FFF74AFFDE
:1009D000C5E76FF020021A61204600F0D7F8C7E79C
:1009E0000368304A904212D0B0F1804F0FD0A2F588
:1009F0007C4290420BD002F58062904207D002F513
:100A00008062904203D002F57842904203D123F0F5
:100A100070034A681343234A90422AD0B0F1804FB2
:100A200027D0A2F57C42904223D002F5806290420A
:100A30001FD002F5806290421BD002F578429042AE
:100A400017D002F57052904213D002F580629042A6
:100A50000FD002F5806290420BD0A2F598329042FE
:100A600007D002F58062904203D002F58062904286
:100A700003D123F44073CA68134323F080034A6907
:100A8000134303608B68C3620B688362054B984213
:100A900003D003F58063984201D10B6903630123FE
:100AA000436170470000014040B310B5044690F820
:100AB0003D30F3B1022384F83D30214651F8040B58
:100AC000FFF78EFF012384F8463084F83E3084F827
:100AD0003F3084F8403084F8413084F8423084F864
:100AE000433084F8443084F8453084F83D300020A9
:100AF00010BD80F83C3000F093FEDBE7012070472A
:100B000090F83C30012B3DD010B4012380F83C30EC
:100B1000022380F83D3003685A689C6822F0700C0C
:100B20000A6842EA0C025A600368174A93421AD0D4
:100B3000B3F1804F17D0A2F57C42934213D002F557
:100B4000806293420FD002F5806293420BD002F58F
:100B50007842934207D002F57052934203D0A2F537
:100B60009432934204D124F080044A6814439C6078
:100B7000012380F83D30002380F83C3018465DF8B2
:100B8000044B7047022070470000014070477047D7
:100B9000002800F0E08170B582B00446036813F0CD
:100BA000010F3BD09F4B9B6803F00C03042B2CD010
:100BB0009C4B9B6803F00C03082B21D06368B3F5B2
:100BC000803F4FD0B3F5A02F52D0964B1A6822F435
:100BD00080321A601A6822F480221A606368002B3F
:100BE00050D000F0B3FC05468E4B1B6813F4003F59
:100BF00014D100F0ABFC401B6428F5D90320B1E10F
:100C0000884B5B6813F4800FD8D0864B1B6813F4B5
:100C1000003F03D06368002B00F09F81236813F02E
:100C2000020F54D07F4B9B6813F00C0F3ED07D4BCE
:100C30009B6803F00C03082B33D0E368002B68D0CB
:100C4000794B01221A6000F081FC0546754B1B6848
:100C500013F0020F54D100F079FC401B0228F5D9A3
:100C600003207FE16F4A136843F480331360B5E7D4
:100C70006C4B1A6842F480221A601A6842F480327F
:100C80001A60ABE700F062FC0546664B1B6813F484
:100C9000003FC3D000F05AFC401B6428F5D9032064
:100CA00060E1604B5B6813F4800FC6D15D4B1B683D
:100CB00013F0020F03D0E368012B40F05081594A32
:100CC000136823F0F803216943EAC1031360236822
:100CD00013F0080F42D063696BB3534B0122C3F882
:100CE000802E00F033FC05464E4B5B6F13F0020F75
:100CF00034D100F02BFC401B0228F5D9032031E150
:100D0000484A136823F0F803216943EAC1031360DA
:100D1000DDE7454B00221A6000F018FC0546414B08
:100D20001B6813F0020FD2D000F010FC401B022809
:100D3000F5D9032016E13C4B0022C3F8802E00F0C9
:100D400005FC0546374B5B6F13F0020F06D000F031
:100D5000FDFB401B0228F5D9032003E1236813F0B3
:100D6000040F77D02F4B1B6C13F0805F33D100231F
:100D700001932C4B1A6C42F080521A641B6C03F0E6
:100D800080530193019B0125284B1B6813F4807F3E
:100D900023D0A368012B34D0052B38D0214B1A6FF8
:100DA00022F001021A671A6F22F004021A67A36880
:100DB000002B3DD000F0CAFB06461A4B1B6F13F008
:100DC000020F46D100F0C2FB801B41F288339842EB
:100DD000F3D90320C6E00025D6E7144A136843F48C
:100DE0008073136000F0B2FB0646104B1B6813F4CF
:100DF000807FCED100F0AAFB801B0228F5D903200A
:100E0000B0E0084A136F43F001031367CFE7054BC7
:100E10001A6F42F004021A671A6F42F001021A6751
:100E2000C5E700BF003802400000474200700040A4
:100E300000F08CFB0646524B1B6F13F0020F08D0DC
:100E400000F084FB801B41F288339842F3D90320E1
:100E500088E0EDB9A369002B00F08380484A9268CE
:100E600002F00C02082A51D0022B17D0454B002269
:100E70001A6600F06BFB0446414B1B6813F0007FC1
:100E800042D000F063FB001B0228F5D9032069E083
:100E90003B4A136C23F080531364DBE7394B002289
:100EA0001A6600F053FB0546354B1B6813F0007FB4
:100EB00006D000F04BFB401B0228F5D9032051E07F
:100EC000E369226A1343626A43EA8213A26A520800
:100ED000013A43EA0243E26A43EA0263284A536062
:100EE000284B01221A6600F031FB0446244B1B6894
:100EF00013F0007F06D100F029FB001B0228F5D972
:100F000003202FE000202DE000202BE0012B2BD030
:100F10001B4B5B6803F48001E269914226D103F028
:100F20003F02216A8A4223D1616A47F6C0721A40A1
:100F3000B2EB811F1ED103F44031A26A5208013A7C
:100F4000B1EB024F18D103F07063E26AB3EB026FAA
:100F500014D1002006E001207047012002E00120AA
:100F600000E0002002B070BD0120FBE70120F9E79E
:100F70000120F7E70120F5E70120F3E70120F1E781
:100F8000003802400000474208B5314B9B6803F02F
:100F90000C03042B57D0082B57D12D4B5A6802F065
:100FA0003F025B6813F4800F2AD0294B5968C1F3C4
:100FB000881C4FEA4C11B1EB0C006EEB0E0E4FEAA1
:100FC0008E1343EA90638101091A63EB0E03DB0081
:100FD00043EA5173C90011EB0C0C43F100035902B1
:100FE00000234FEA4C2041EADC51FFF7F1F8184B9F
:100FF0005B68C3F3014301335B00B0FBF3F025E012
:10100000134B5968C1F3881C4FEA4C11B1EB0C002B
:101010006EEB0E0E4FEA8E1343EA90638101091ABC
:1010200063EB0E03DB0043EA5173C90011EB0C0CB8
:1010300043F10003990200234FEA8C2041EA9C51BE
:10104000FFF7C6F8D3E7034800E0034808BD00BF38
:101050000038024000127A000024F400002800F05A
:101060009B8070B50D4604464F4B1B6803F0070389
:101070008B4208D2CBB24C4A1370136803F00703BB
:101080008B4240F08B80236813F0020F17D013F0CF
:10109000040F04D0454A936843F4E05393602368F7
:1010A00013F0080F04D0414A936843F460439360FF
:1010B0003E4A936823F0F003A1680B4393602368D2
:1010C00013F0010F32D06368012B21D09A1E012A40
:1010D00025D9364A126812F0020F61D033498A6866
:1010E00022F0030213438B6000F030FA06462F4BC8
:1010F0009B6803F00C036268B3EB820F16D000F01C
:1011000025FA801B41F288339842F0D9032042E04F
:10111000264A126812F4003FE0D101203BE0234A46
:10112000126812F0007FD9D1012034E01E4B1B68F9
:1011300003F00703AB4207D9EAB21B4B1A701B68D6
:1011400003F00703AB422DD1236813F0040F06D040
:10115000164A936823F4E053E1680B4393602368D5
:1011600013F0080F07D0114A936823F460432169F4
:1011700043EAC1039360FFF707FF0C4B9B68C3F37F
:1011800003130B4AD35CD8400A4B18600A4B18680B
:1011900000F090F9002070BD012070470120FAE7AF
:1011A0000120F8E70120F6E7003C02400038024049
:1011B00054320008400400203004002000230F2B8C
:1011C00000F2E48070B582B060E085685E000324C0
:1011D000B44025EA0405CC68B4402C4384604568DB
:1011E00025EA02054C68C4F300129A402A43426083
:1011F0005AE0DC08083450F8246003F00702950038
:101200000F22AA4026EA020E0A69AA4042EA0E020A
:1012100040F824205CE0072200E0002202FA0EF2EF
:101220002A4302345A4D45F824205A4A94686FEAFA
:101230000C0224EA0C054E6816F4801F01D04CEA1B
:101240000405544CA560E46802EA04054E6816F4EF
:10125000001F01D04CEA04054E4CE560646802EAC8
:1012600004054E6816F4003F01D04CEA0405494CD1
:101270006560246822404D6815F4803F01D04CEA37
:101280000402444C226001330F2B7DD801229A4086
:101290000C6804EA020C32EA0404F4D14C6804F04D
:1012A0000304013C012C90D94A6802F00302032A8E
:1012B00009D0C4685D000322AA4024EA02048A68B7
:1012C000AA402243C2604A6802F00302022A90D078
:1012D00004684FEA430E032202FA0EF224EA0204E3
:1012E0004A6802F0030202FA0EF2224302604A68E0
:1012F00012F4403FC7D000220192274A546C44F4B4
:1013000080445464526C02F480420192019A9C0819
:10131000A51C1F4A52F8255003F003024FEA820E23
:101320000F2202FA0EF225EA02051C4A90423FF40F
:1013300074AF02F5806290421AD002F5806290424A
:1013400018D002F58062904216D002F58062904279
:1013500014D002F58062904212D002F58062904271
:1013600010D002F5806290423FF455AF082255E755
:10137000012253E7022251E703224FE704224DE7FF
:1013800005224BE7062249E702B070BD704700BF57
:1013900000380140003C014000380240000002409B
:1013A0000AB181617047090481617047436901EAAC
:1013B000030221EA030141EA02418161704770475B
:1013C00008B5054B5B69034200D108BD024B58616B
:1013D000FFF7F5FFF9E700BF003C0140074AD3687B
:1013E00023F4E0631B041B0C000200F4E0600343E1
:1013F00043F0BF6343F40033D360704700ED00E077
:1014000000B5194BDB68C3F30223C3F1070CBCF131
:10141000040F28BF4FF0040C03F1040EBEF1060FB9
:1014200018D9033B4FF0FF3E0EFA0CFC21EA0C01E9
:1014300099400EFA03F322EA0303194300280BDB59
:101440000901C9B200F1604000F5614080F8001365
:101450005DF804FB0023E5E700F00F000901C9B2C5
:10146000024B1954F4E700BF00ED00E014ED00E07A
:10147000002807DB00F01F02400901239340024AC5
:1014800042F82030704700BF00E100E00138B0F1C1
:10149000807F0BD24FF0E0235861054AF02182F89B
:1014A00023100020986107221A61704701207047BD
:1014B00000ED00E010B504460E4B18784FF47A7337
:1014C000B3FBF0F30C4A1068B0FBF3F0FFF7DEFF5C
:1014D00068B90F2C01D901200AE0002221464FF003
:1014E000FF30FFF78DFF054B1C60002000E001205E
:1014F00010BD00BF2C040020400400203004002058
:1015000008B50B4B1A6842F400721A601A6842F46C
:1015100080621A601A6842F480721A600320FFF732
:101520005DFF0F20FFF7C6FF00F058F9002008BD4F
:10153000003C0240034A1168034B1B780B441360C4
:10154000704700BF680400202C040020014B18687D
:10155000704700BF6804002070B588B00024039471
:10156000049405940694079401941F4B1A6B42F05F
:1015700001021A631A6B02F001020192019A0294AD
:101580001A6B42F008021A631B6B03F00803029304
:10159000029B164D01224FF480512846FFF700FFB1
:1015A00022464FF4C0412846FFF7FAFE0126039673
:1015B0004FF488130493059403A90D48FFF7FEFD2B
:1015C0004FF4E043039304960594069403A9284638
:1015D000FFF7F4FD224605210620FFF711FF062044
:1015E000FFF746FF08B070BD00380240000C024013
:1015F0000000024008B5012000F0CCF9FBE772B60C
:10160000FEE7000000B583B00023009301930F486C
:101610000F4A026042F20F724260836041F28733E8
:10162000C36080238361FFF73FFA50B90023009322
:10163000019369460548FFF763FA20B903B05DF8E6
:1016400004FBFFF7DCFFFFF7DAFF00BF70040020A8
:101650000010004000B595B03022002108A8FEF728
:10166000F7FF0023039304930593069307930193D5
:101670001F4A116C41F080511164126C02F08052CB
:101680000192019A02931B4A116841F48041116052
:10169000126802F480420292029A02220892012108
:1016A0000B9110210C910E920F930823109350234D
:1016B000119312920723139308A8FFF769FA90B9C0
:1016C0000F23039302210491002305934FF4E05369
:1016D00006934FF48053079303A8FFF7BFFC20B98C
:1016E00015B05DF804FBFFF78AFFFFF788FF00BF26
:1016F000003802400070004000B58BB0FFF700FFDB
:10170000FFF7A8FFFFF728FFFFF77CFF0322002168
:10171000012000F02EFC224B186020B100231A4655
:10172000194600F04AFC03220021012000F021FCB0
:101730001C4B186020B100231A46194600F03DFCEE
:10174000174B1B681BB30DF10C0C174C0FCCACE8FE
:101750000F0094E807008CE80700002103A800F0C0
:10176000E4F8124B1860002401940094104B80227E
:101770001049114800F0DFFF0194009423468022B5
:101780000E490F4800F0D7FF00F0CAF8FEE74FF00F
:10179000500383F31188BFF36F8FBFF34F8FFEE7C2
:1017A000B8040020BC0400200C3200086C040020A7
:1017B0003804002038320008193100084832000887
:1017C00055310008034B0360034B0B60802313600B
:1017D000704700BFC0060020C004002000B583B0E1
:1017E000002200920D4B596C41F480415964596CB0
:1017F00001F48041009100990192196C41F08051EF
:1018000019641B6C03F080530193019B0F216FF04F
:101810000100FFF7F5FD03B05DF804FB003802405E
:1018200002680E4B9A4200D0704700B583B0002288
:10183000019203F50A33196C41F0100119641B6C15
:1018400003F010030193019B05213620FFF7D8FD1B
:101850003620FFF70DFE03B05DF804FB00100040DA
:10186000FEE7FEE7FEE7FEE7FEE7704708B5FFF795
:1018700061FE01F009FA012800D108BD00F06AF903
:10188000FBE7000000B583B0002301930120FFF7C0
:1018900097FD01A9094B186800F053FC019B4BB15F
:1018A0004FF0E0234FF08052C3F8042DBFF34F8F69
:1018B000BFF36F8F03B05DF804FB00BFB8040020D6
:1018C00000B583B0002301930B48FEF7CCFF01A9BC
:1018D0000A4B186800F035FC019B4BB14FF0E02338
:1018E0004FF08052C3F8042DBFF34F8FBFF36F8FBB
:1018F00003B05DF804FB00BF70040020BC040020AE
:10190000034AD2F8883043F47003C2F88830704735
:1019100000ED00E0842801D00330704700207047BC
:1019200008B500F03DFF002008BD2DE9F04387B069
:1019300004460F464569BDB18669AEB1D0F8048052
:10194000D0F80090B0F90800FFF7E4FF0296019587
:1019500000903B4622694946404600F0B1FE0590A2
:10196000059807B0BDE8F08365682668D4F8108054
:10197000B4F90800FFF7CEFF05AB019300903B469A
:101980001FFA88F23146284600F0D5FE0128E7D03C
:101990000020E6E708B500B9012001F051F8002069
:1019A00008BD000082B0002301930D4B1B68B3F10A
:1019B000FF3F08D04FF0500383F31188BFF36F8FC0
:1019C000BFF34F8FFEE74FF0500383F31188BFF34F
:1019D0006F8FBFF34F8F019B002BFCD002B070477D
:1019E0004404002008480068006880F308884FF02D
:1019F000000080F3148862B661B6BFF34F8FBFF367
:101A00006F8F00DF00BF000008ED00E0DFF80C0082
:101A1000016841F4700101607047000088ED00E04A
:101A20004FF0807340F8043C21F0010140F8081C9D
:101A3000054B40F80C3C40F8202C6FF0020340F8B6
:101A4000243C4438704700BFA5190008000000007E
:101A5000074B19680868B0E8F04F80F30988BFF3B6
:101A60006F8F4FF0000080F311887047AFF3008054
:101A70001C0700204FF0500383F31188BFF36F8FD2
:101A8000BFF34F8F0B4A136801331360012B00D053
:101A900070474FF0E023D3F8043D13F0FF0FF7D069
:101AA0004FF0500383F31188BFF36F8FBFF34F8F55
:101AB000FEE700BF44040020094B1B6843B94FF008
:101AC000500383F31188BFF36F8FBFF34F8FFEE78F
:101AD000013B034A13600BB983F31188704700BFC1
:101AE000440400200000000000000000000000008E
:101AF000EFF30980BFF36F8F154B1A681EF0100FBC
:101B000008BF20ED108A20E9F04F10602DE9090090
:101B10004FF0500080F31188BFF34F8FBFF36F8FEA
:101B200000F0B4FF4FF0000080F3118809BC196881
:101B30000868B0E8F04F1EF0100F08BFB0EC108A34
:101B400080F30988BFF36F8F704700BFAFF3008049
:101B50001C07002008B54FF0500383F31188BFF332
:101B60006F8FBFF34F8F00F063FE28B14FF0E0237B
:101B70004FF08052C3F8042D002383F3118808BD71
:101B80004FF0E022002313619361054B1B68054968
:101B9000A1FB03139B09013B5361072313617047AA
:101BA00040040020D34D62104FF0E023D3F8002D05
:101BB0003D4B9A421CD04FF0E023D3F8002D3B4B15
:101BC0009A421ED030B583B0394B1A78D2B2019206
:101BD000FF221A701B78DBB28DF803309DF80330BA
:101BE00003F05003334A1370334B07221A601BE093
:101BF0004FF0500383F31188BFF36F8FBFF34F8F04
:101C0000FEE74FF0500383F31188BFF36F8FBFF3EC
:101C10004F8FFEE7284A1368013B13609DF803309D
:101C20005B00DBB28DF803309DF8033013F0800FBA
:101C3000F0D1214B1B68032B08D04FF0500383F3E6
:101C40001188BFF36F8FBFF34F8FFEE71B021A4A55
:101C5000136003F4E0631360019BDBB2144A13705A
:101C60004FF0E024D4F8203D43F47003C4F8203D45
:101C7000D4F8203D43F07043C4F8203DFFF780FFC7
:101C800000250E4B1D60FFF7C1FED4F8343F43F032
:101C90004043C4F8343FFFF7A5FE00F0F7FEFFF71E
:101CA00081FE284603B030BD71C20F4170C20F41A2
:101CB00000E400E01407002018070020440400207E
:101CC000EFF305830F2B0FD9114A9B5CDBB2114A4E
:101CD00012789A4208D94FF0500383F31188BFF36A
:101CE0006F8FBFF34F8FFEE74FF0E023D3F80C3D2B
:101CF00003F4E063084A1268934208D94FF0500396
:101D000083F31188BFF36F8FBFF34F8FFEE77047E8
:101D1000F0E300E0140700201807002000F108039A
:101D200043604FF0FF328260C360036100230360B1
:101D3000704700230361704743684B609A688A606C
:101D4000516099600861036801330360704730B4E3
:101D50000D68B5F1FF3F11D000F108031C465B6828
:101D60001A68AA42FAD963684B6099608C60616016
:101D7000086103680133036030BC70470469F2E70F
:101D80000369416882688A60416851605A6882428A
:101D900006D0002202611A68013A1A60186870477A
:101DA00082685A60F5E70346406A18B11B6B1868F1
:101DB000C0F10700704710B50446FFF75BFEA26B49
:101DC000E36B9A4204D00024FFF776FE204610BD54
:101DD0000124F9E710B50446FFF74CFEA36B23B9C5
:101DE0000124FFF769FE204610BD0024F9E770B515
:101DF00004461546866B026C5AB903681BB1002075
:101E00000136A66370BD806800F0A4FF0023A360C4
:101E1000F6E76DB94068FEF75DFB226C636813441A
:101E20006360A268934219D3236863602846E7E79A
:101E3000C068FEF74FFB226C5142E3689B1AE360D7
:101E40002268934202D2A3680B44E360022D01D0C2
:101E50000020D5E726B1013E0020D1E72846CFE794
:101E60000020CDE738B50546FFF704FE95F845405C
:101E700064B201E0013C64B2002C0ADD6B6A43B13C
:101E800005F1240000F066FE0028F3D000F0F6FE15
:101E9000F0E7FF2385F84530FFF70EFEFFF7EAFD78
:101EA00095F8444064B201E0013C64B2002C0ADDC4
:101EB0002B6943B105F1100000F04CFE0028F3D06F
:101EC00000F0DCFEF0E7FF2385F84430FFF7F4FD77
:101ED00038BD38B5E0B10D460446FFF7CBFD2368A9
:101EE000E26B216C01FB0230A0600020A063636004
:101EF000013A02FB0133E360FF2384F8443084F8A5
:101F00004530FDB9236963B9FFF7D6FD012038BD1F
:101F10004FF0500383F31188BFF36F8FBFF34F8FE0
:101F2000FEE704F1100000F015FE0028ECD04FF0A1
:101F3000E0234FF08052C3F8042DBFF34F8FBFF35F
:101F40006F8FE1E704F11000FFF7E8FE04F12400D1
:101F5000FFF7E4FED8E710B5034602980C4631B906
:101F60000060C36304640121FFF7B3FF10BD02608A
:101F7000F7E740B94FF0500383F31188BFF36F8F39
:101F8000BFF34F8FFEE7F0B583B00D46144606460B
:101F900001FB00F0483001F003F8074650B1002380
:101FA00080F846300090234600F14802294630462A
:101FB000FFF7D1FF384603B0F0BDF0B585B0019210
:101FC00088B10F461D460446B1B1022D20D1E36B06
:101FD000012B1DD04FF0500383F31188BFF36F8F97
:101FE000BFF34F8FFEE74FF0500383F31188BFF329
:101FF0006F8FBFF34F8FFEE7036C002BE5D04FF0E0
:10200000500383F31188BFF36F8FBFF34F8FFEE749
:1020100000F03AFE064658B9019B002B48D04FF01D
:10202000500383F31188BFF36F8FBFF34F8FFEE729
:1020300000263DE02A4639462046FFF7D8FE636A6F
:102040007BB948B14FF0E0234FF08052C3F8042D24
:10205000BFF34F8FBFF36F8FFFF72EFD012005B049
:10206000F0BD04F1240000F075FD0028F4D04FF01D
:10207000E0234FF08052C3F8042DBFF34F8FBFF31E
:102080006F8FE9E7FFF718FD0020E8E702A800F0EE
:10209000A7FD012619E0002384F8443021E0002345
:1020A00084F8453023E02046FFF7DCFE00F04CFCCE
:1020B000FFF7E0FCA26BE36B9A42BBD3022DB9D0D1
:1020C000019B002BDED0002EE0D0FFF7F5FC00F0E6
:1020D000A1FBFFF7CFFC94F8442052B2B2F1FF3FCE
:1020E000D9D094F8452052B2B2F1FF3FD7D0FFF7D4
:1020F000E3FC01A902A800F07FFDD8B92046FFF754
:102100005AFE0028CFD0019904F1100000F00AFD1A
:102110002046FFF7A7FE00F017FC0028C8D14FF0BB
:10212000E0234FF08052C3F8042DBFF34F8FBFF36D
:102130006F8FBDE72046FFF795FE00F005FC0020FD
:102140008DE768B170B50C460546036C8BB14FF056
:10215000500383F31188BFF36F8FBFF34F8FFEE7F8
:102160004FF0500383F31188BFF36F8FBFF34F8F8E
:10217000FEE70368EBB1FFF7A3FDEFF311864FF025
:10218000500383F31188BFF36F8FBFF34F8FAA6B98
:10219000EB6B934226D995F845305BB20132AA63C6
:1021A000B3F1FF3F11D001335BB285F84530012018
:1021B00019E08368002BDED04FF0500383F31188C1
:1021C000BFF36F8FBFF34F8FFEE76B6A0BB9012030
:1021D00009E005F1240000F0BDFC38B144B1012054
:1021E000206000E0002086F3118870BD0120FAE72E
:1021F0000120F8E770B584B0019158B10446036C32
:102200008BB14FF0500383F31188BFF36F8FBFF38F
:102210004F8FFEE74FF0500383F31188BFF36F8FAA
:10222000BFF34F8FFEE700F02FFD054650B9019B2D
:102230005BB14FF0500383F31188BFF36F8FBFF38F
:102240004F8FFEE70026354655E0064653E0013B3A
:10225000A36323683BB123694BB9FFF72DFC01262B
:10226000304604B070BD00F029FEA060F3E704F131
:10227000100000F06FFC0028EFD04FF0E0234FF08B
:102280008052C3F8042DBFF34F8FBFF36F8FE4E785
:1022900046B14FF0500383F31188BFF36F8FBFF344
:1022A0004F8FFEE7FFF708FCDAE702A800F098FC82
:1022B00001252AE0002384F8443032E0002384F82A
:1022C000453034E0FFF7D6FBA06800F0EDFC064691
:1022D000FFF7F2FB3BE02046FFF7C4FD00F034FBC4
:1022E00009E02046FFF7BEFD00F02EFB2046FFF779
:1022F00071FD002842D1FFF7BDFBA36B002BA6D1D7
:10230000019B002BC4D0002DCFD0FFF7D5FB00F0F0
:1023100081FAFFF7AFFB94F844305BB2B3F1FF3FB3
:10232000C8D094F845305BB2B3F1FF3FC6D0FFF799
:10233000C3FB01A902A800F05FFC0028D1D1204610
:10234000FFF748FD0028C6D02368002BBAD00199BA
:1023500004F1240000F0E6FB2046FFF783FD00F0C7
:10236000F3FA0028C7D14FF0E0234FF08052C3F8B2
:10237000042DBFF34F8FBFF36F8FBCE70EB900265C
:102380006EE7FFF777FB2046FFF70DFD0146A068DB
:1023900000F03AFDFFF790FBF1E70000084B1B68E7
:1023A0001B6823B9074B4FF0FF321A607047044B8C
:1023B0001B68DB68DB685A68024B1A60704700BF15
:1023C00020070020F40700202DE9F0470746984633
:1023D000089DDDF824900A9C266B02F18042013AA8
:1023E00006EB820626F0070600293AD08E464FF00B
:1023F000000CBCF10F0F0BD81EF80C2004EB0C03E3
:1024000083F834201EF80C3013B10CF1010CF0E706
:10241000002384F84330062D00D90625E562656463
:102420004FF0000AC4F848A0201DFFF782FC04F119
:102430001800FFF77EFC2461C5F10705A561646201
:10244000C4F84CA084F850A0424639463046FFF705
:10245000E7FA2060B9F1000F01D0C9F80040BDE8EB
:10246000F087002384F83430D5E7000038B5002425
:1024700007E004EB840293000E481844FFF74EFC7B
:102480000134062CF5D90C4D2846FFF747FC0B4CC0
:102490002046FFF743FC0A48FFF740FC0948FFF7D6
:1024A0003DFC0948FFF73AFC084B1D60084B1C60D7
:1024B00038BD00BF28070020C8070020DC07002027
:1024C000000800202C080020180800202007002009
:1024D0002407002010B50446FFF7CCFA214A136800
:1024E00001331360204B1B685BB1204B1B686BB939
:1024F0001D4B1B68DA6AE36A9A4207D81A4B1C60C4
:1025000004E0194B1C601368012B28D0184A13688B
:1025100001331360E06A01238340164A11680B43BC
:10252000136000EB8000211D134B03EB8000FFF7CD
:1025300003FCFFF7C1FA0D4B1B687BB10A4B1B680C
:10254000DA6AE36A9A4209D24FF0E0234FF08052F0
:10255000C3F8042DBFF34F8FBFF36F8F10BDFFF78C
:1025600085FFD3E7B40700201C07002014080020D3
:10257000C0070020C40700202807002010B504462B
:1025800090F8513063B1012B11D0022B0ED04FF0D7
:10259000500383F31188BFF36F8FBFF34F8FFEE7B4
:1025A000006B00F07BFD204600F078FD10BD00F0D0
:1025B00075FDFBE70F4B1B68D3B110B5FFF75AFA57
:1025C0000D4BDB68DC68201DFFF7DAFB0B4A136854
:1025D000013B1360074A1368013B1360FFF76CFA75
:1025E0002046FFF7CBFF034B1B68002BE6D110BD45
:1025F000704700BFB80700202C080020B407002057
:1026000008B5FFF7D7FF074B1B68012BF9D94FF02F
:10261000E0234FF08052C3F8042DBFF34F8FBFF378
:102620006F8FEEE72807002070B504460D461D4B5E
:102630001E681D4B18680430FFF7A2FB50B91A4BF7
:102640001B68DA6A012303FA02F218490B6823EACD
:1026500002030B60B4F1FF3F0DD03444124B1B68F2
:102660005C60A64210D9124B18680F4B19680431F0
:10267000FFF76DFB70BD002DEFD00B4B19680431D7
:102680000C48FFF759FBF5E70B4B1868064B196828
:102690000431FFF75CFB094B1B68A342EAD9074BE7
:1026A0001C60E7E7400800201C070020C40700204A
:1026B000240700201808002020070020F40700202D
:1026C00030B587B00B9C7CB10C9DB5B154250495F9
:1026D000049D542D1AD04FF0500383F31188BFF39B
:1026E0006F8FBFF34F8FFEE74FF0500383F31188D6
:1026F000BFF36F8FBFF34F8FFEE74FF0500383F3AD
:102700001188BFF36F8FBFF34F8FFEE7049D0C9DC1
:102710002C63022485F8514000240394029505ACF3
:1027200001940A9C0094FFF74FFE0C98FFF7D2FE2D
:10273000059807B030BD2DE9F04385B007468846BF
:1027400014461E46900000F02BFC00B38146542036
:1027500000F026FC0546B0B1C0F83090E5B100238A
:1027600085F85130039302950D9B01930C9B0093C8
:102770003346224641463846FFF726FE2846FFF7F5
:10278000A9FE012005E0484600F088FCE6E74FF08E
:10279000FF3005B0BDE8F0834FF0FF30F9E70000EF
:1027A00010B588B000240594069407AA06A905A8C8
:1027B000FFF708F8059B0293069B019300942346BC
:1027C000079A0E490E48FFF77BFF0E4B186090B139
:1027D0004FF0500383F31188BFF36F8FBFF34F8F18
:1027E000094B4FF0FF321A60084B01221A60084B68
:1027F0001C60FFF7D9F908B010BD00BF64320008B3
:1028000001260008F0070020F4070020140800202B
:1028100040080020024A136801331360704700BF6C
:10282000BC070020014B1868704700BF400800201B
:10283000F8B53A4B1B68002B69D1394B1D6801353F
:102840001D60C5B9374B1B681B6843B14FF050037F
:1028500083F31188BFF36F8FBFF34F8FFEE7314AC9
:102860001168314B186810601960304A13680133E1
:102870001360FFF793FD2E4B1B68AB423DD9002739
:102880002C4B1B68DB6A03EB83039A002A4B9B5893
:10289000012B00D90127294B1B68002B3CD00127B5
:1028A0003AE001271F4B1B681B6843B31D4B1B6895
:1028B000DB68DC6863689D4226D3261D3046FFF73F
:1028C0005FFAA36A1BB104F11800FFF759FAE36A33
:1028D00001229A401A49086802430A6003EB830305
:1028E0009A00314614481044FFF726FAE26A114B69
:1028F0001B68DB6A9A42D4D2D4E70027D2E70C4B9C
:102900004FF0FF321A60BBE7094A1360B8E70D4A7F
:1029100013680133136000273846F8BDBC07002058
:10292000400800202007002024070020F80700208E
:10293000F40700201C07002028070020440800207E
:10294000C4070020FC07002038B5354B1B6843B98D
:102950004FF0500383F31188BFF36F8FBFF34F8F96
:10296000FEE7FFF787F82E4B1A68013A1A601B68DA
:10297000002B4FD12B4B1B680BB900244BE00024DC
:10298000294B1B681BB3284BDB68DC6804F118007B
:10299000FFF7F6F9251D2846FFF7F2F9E06A012353
:1029A0008340224A11680B43136000EB80002946E4
:1029B0001F4B03EB8000FFF7BFF9E26A1D4B1B685A
:1029C000DB6A9A42DCD31C4B01221A60D8E70CB1B7
:1029D000FFF7E4FC194B1C6884B9174B1C68D4B191
:1029E0004FF0E0234FF08052C3F8042DBFF34F8F18
:1029F000BFF36F8F01240EE0013C07D0FFF718FFF3
:102A00000028F9D00C4B01221A60F5E70B4B00228D
:102A10001A60E2E70024FFF74FF8204638BD00BFF8
:102A2000BC070020B407002000080020C4070020D5
:102A3000280700201C07002044080020FC07002075
:102A400010B5A8B10446104B1B6843B14FF05003BA
:102A500083F31188BFF36F8FBFF34F8FFEE7FFF74C
:102A6000D9FE00212046FFF7DFFDFFF76DFF48B9D3
:102A70004FF0E0234FF08052C3F8042DBFF34F8F87
:102A8000BFF36F8F10BD00BFBC070020204B1B6839
:102A90001BB1204B01221A6070471E4B00221A60A6
:102AA0001D4B1B68B3FA83F3DBB2C3F11F0303EBC7
:102AB00083018A0019498A5842B94FF0500383F3C1
:102AC0001188BFF36F8FBFF34F8FFEE7134903EBFE
:102AD000830082000A4450684068506003EB830C16
:102AE0004FEA8C0208321144884209D003EB830379
:102AF0009A000A4B13445B68DA68094B1A60704706
:102B0000406862469100054A0A445060EEE700BF03
:102B1000BC07002044080020C4070020280700202C
:102B20001C07002058B110B50C46094A116818312D
:102B3000FFF70DF901212046FFF776FD10BD4FF09C
:102B4000500383F31188BFF36F8FBFF34F8FFEE7FE
:102B50001C07002038B5C368DC6824B304F11805ED
:102B60002846FFF70DF9184B1B682BBB251D28467F
:102B7000FFF706F9E06A01238340144A11680B430A
:102B8000136000EB80002946114B03EB8000FFF738
:102B9000D3F8E26A0F4B1B68DB6A9A4211D9012015
:102BA0000D4B186038BD4FF0500383F31188BFF30D
:102BB0006F8FBFF34F8FFEE729460848FFF7BCF839
:102BC000E7E70020EEE700BFBC070020C4070020B5
:102BD000280700201C0700204408002000080020CF
:102BE000034B1B680360034B1B684360704700BFC7
:102BF000F807002040080020F8B5C8B10C4605468B
:102C0000F9B1FEF737FF1B4B19686B68C81A2268C9
:102C1000B2F1FF3F26D0184E36682F68B74201D078
:102C20008B4224D9824215D80023236001241AE064
:102C30004FF0500383F31188BFF36F8FBFF34F8FB3
:102C4000FEE74FF0500383F31188BFF36F8FBFF39C
:102C50004F8FFEE75B1A134423602846FFF7C0FF3F
:102C6000002400E00024FEF727FF2046F8BD0124E1
:102C7000F9E700BF40080020F8070020014B0122BF
:102C80001A60704744080020054B1B6833B1054BA0
:102C90001B680BB10020704702207047012070476D
:102CA00014080020BC070020002849D038B504468D
:102CB000C36A254A1268D26A934239D28269002ACD
:102CC00005DB214A1268D26AC2F10702826161699A
:102CD00003EB83031D4A02EB8303994205D01A4B91
:102CE0001B68DB6AE362012038BD251D2846FFF71B
:102CF00047F840B9E26A012303FA02F214490B686B
:102D000023EA02030B60104B1B68D86AE0620124BF
:102D100004FA00F30E4A11680B43136000EB8000C5
:102D200029460A4B03EB8000FFF706F82046DBE755
:102D3000426C054B1B68DB6A9A4203D30020D3E741
:102D4000002070470120CFE71C0700202807002043
:102D5000C407002000284CD038B50446274B1B6818
:102D6000834208D04FF0500383F31188BFF36F8F75
:102D7000BFF34F8FFEE7836C43B94FF0500383F3EB
:102D80001188BFF36F8FBFF34F8FFEE7013B836462
:102D9000C16A426C91422ED00BB1002038BD051D96
:102DA0002846FEF7EDFF70B9E26A02EB82039B0052
:102DB0001349CB583BB9012303FA02F211490B68BE
:102DC00023EA02030B60606CE062C0F10703A361B9
:102DD000012404FA00F30B4A11680B43136000EB63
:102DE00080002946064B03EB8000FEF7A5FF204636
:102DF000D4E7002070470020D0E700BF1C07002068
:102E000028070020C4070020002850D038B5044609
:102E1000836C43B94FF0500383F31188BFF36F8F76
:102E2000BFF34F8FFEE7426C8A4200D20A46E16A46
:102E3000914201D0012B00D038BD1D4B1B68A3422D
:102E40002CD0E262A369002B02DBC2F10702A2616F
:102E5000626901EB8101174B03EB81018A42EBD1DF
:102E6000251D2846FEF78CFF40B9E26A012303FACC
:102E700002F211490B6823EA02030B60E06A0123A6
:102E800083400D4A11680B43136000EB8000294614
:102E9000084B03EB8000FEF74FFFCDE74FF05003E8
:102EA00083F31188BFF36F8FBFF34F8FFEE7704737
:102EB0001C07002028070020C4070020054B1B68C2
:102EC00023B1044B1A68936C01339364014B186867
:102ED000704700BF1C070020124A12F0070F1ED0D7
:102EE000D11D21F00701C1F5705313440A460E4865
:102EF0000260002141601344083B23F007030B48A4
:102F0000036059601960991A51601360084B196089
:102F1000084B1960084B4FF000421A6070474FF49D
:102F20007053E4E74C08002060440020480800206B
:102F300054440020504400204C440020164B1A46B4
:102F40001B688342FBD3516802EB010C844509D016
:102F5000416800EB010C634509D00360904219D031
:102F6000106070474068014451601046F0E710B4AB
:102F70000A4C2468A3420BD05B6819444160136873
:102F80001B680360904200D010605DF8044B7047EE
:102F90000460F7E7704700BF604400204808002045
:102FA00070B50546FFF736FC364B1B68A3B1364BB0
:102FB0001B681D424ED135B1083515F0070F02D000
:102FC00025F007050835002D46D0304B1B68AB4275
:102FD00051D32F4A146804E0FFF77EFFE7E722464B
:102FE0001C466368AB4202D22368002BF7D1254B05
:102FF0001B68A34241D016680836236813606368D3
:103000005B1B102B10D9601910F0070F08D04FF080
:10301000500383F31188BFF36F8FBFF34F8FFEE729
:1030200043606560FFF78AFF626818490B689B1A66
:103030000B60184909688B4201D216490B60124B8C
:103040001B681343636000232360134A1368013332
:10305000136002E0002600E00026FFF775FC16F082
:10306000070F0CD04FF0500383F31188BFF36F8F1D
:10307000BFF34F8FFEE70026EFE70026EDE730466F
:1030800070BD00BF480800204C4400205044002080
:10309000604400205444002058440020002834D0CC
:1030A00038B50446A0F1080550F8043C174A1268E8
:1030B000134208D14FF0500383F31188BFF36F8F91
:1030C000BFF34F8FFEE750F8081C41B14FF050039B
:1030D00083F31188BFF36F8FBFF34F8FFEE723EAAF
:1030E000020340F8043CFFF795FB54F8041C084A1F
:1030F00013680B4413602846FFF720FF054A136846
:1031000001331360FFF720FC38BD70474C440020AA
:10311000504400205C44002038B505684FF47A73B1
:1031200003FB05F5094BA3FB0535AD09FFF77AFB5A
:1031300004464FF480510648FEF738F9FFF772FB5A
:10314000201A2844FFF77CFCF0E700BFD34D621043
:10315000000C024008B50E48FDF73CFB0A210D4B60
:103160001868FFF747F801280CD00A210A4B1868A5
:10317000FFF740F80128F1D14FF480410748FEF7EE
:1031800015F9EBE74FF400510448FEF70FF9ECE7AF
:1031900070040020B8040020BC040020000C024091
:1031A000DFF834D00D480E490E4A002302E0D4580F
:1031B000C4500433C4188C42F9D30B4A0B4C00237F
:1031C00001E013600432A242FBD3FEF799FBFDF746
:1031D0001BFAFEF791FA7047000002200000002061
:1031E0004804002080320008480400206844002081
:1031F000FEE70000F8B500BFF8BC08BC9E4670476B
:0C320000F8B500BFF8BC08BC9E46704743
:10320C002C320008F515000800000000000000003A
:10321C008000000000000000000000000000002002
:10322C0064656661756C745461736B005374617280
:10323C0074206F66204170700000000049535220CA
:10324C0048616E646C6572000000000000000000B4
:10325C00010203040607080949444C45000000001C
:08326C0094CFFF7F0100000078
:08327400F5060008B501000891
:04327C0091010008B4
:1032800000000000EC02002054030020BC030020DA
:10329000000000000000000000000000000000002E
:1032A000000000000000000000000000000000001E
:1032B000000000000000000000000000000000000E
:1032C00000000000000000000000000000000000FE
:1032D00000000000000000000000000000000000EE
:1032E00000000000000000000000000000000000DE
:1032F00000000000000000000000000000000000CE
:1033000000000000000000000000000000000000BD
:1033100000000000000000000000000000000000AD
:10332000000000000000000001000000000000009C
:103330000E33CDAB34126DE6ECDE05000B00000061
:10334000000000000000000000000000000000007D
:10335000000000000000000000000000000000006D
:10336000000000000000000000000000000000005D
:10337000000000000000000000000000000000004D
:1036A0000000000000000000640400200100000091
:1036B0001000000000000000640000000000000096
:0836C0000024F400AAAAAAAA42
:04000005080031A11D
:00000001FF
